:020000040800F2
:1000000000000120AD2C00086F08000875080008EA
:100010007B0800088108000887080008000000002D
:100020000000000000000000000000008D08000833
:100030009B08000800000000A9080008B708000895
:10004000FD2C0008FD2C0008FD2C0008FD2C0008EC
:10005000FD2C0008FD2C0008FD2C0008FD2C0008DC
:10006000FD2C0008FD2C0008FD2C0008FD2C0008CC
:10007000FD2C0008FD2C0008FD2C0008FD2C0008BC
:10008000FD2C0008FD2C0008FD2C0008FD2C0008AC
:10009000FD2C0008FD2C0008FD2C0008FD2C00089C
:1000A000FD2C0008FD2C0008FD2C0008FD2C00088C
:1000B000FD2C00080000000000000000FD2C0008DE
:1000C000FD2C00080000000000000000FD2C0008CE
:1000D00000000000FD2C0008FD2C000800000000BE
:1000E000FD2C0008FD2C00080000000000000000AE
:1000F0000000000000000000000000000000000000
:10010000000000000000000000000000FD2C0008BE
:100110000000000000000000FD2C0008FD2C00087D
:10012000FD2C0008FD2C0008FD2C0008FD2C00080B
:10013000FD2C00080000000000000000000000008E
:10014000FD2C0008FD2C0008FD2C0008FD2C0008EB
:10015000FD2C0008FD2C0008FD2C0008FD2C0008DB
:10016000FD2C0008FD2C0008FD2C000800000000FC
:10017000FD2C0008FD2C000800000000000000001D
:10018000FD2C0008FD2C0008FD2C000800000000DC
:100190000348044B834202D0034B03B11847704716
:1001A0001000002010000020000000000548064953
:1001B0000B1AD90F01EBA301491002D0034B03B175
:1001C00018477047100000201000002000000000B9
:1001D00010B5064C237843B9FFF7DAFF044B13B18F
:1001E0000448AFF300800123237010BD10000020ED
:1001F00000000000002D000808B5044B1BB10449A5
:100200000448AFF30080BDE80840CFE700000000DD
:1002100014000020002D000870B50D4E0D4D761B0A
:10022000B61006D0002455F8043B01349847A64286
:10023000F9D1094E094D761B02F062FDB61006D0C9
:10024000002455F8043B01349847A642F9D170BD0B
:10025000682D0008682D00086C2D0008682D000826
:10026000830730B548D0541E002A3FD0CAB2034697
:1002700001E0013C3AD303F8012B9D07F9D1032C8F
:100280002DD9CDB245EA05250F2C45EA054536D9CD
:10029000A4F1100222F00F0C03F1200EE6444FEA05
:1002A000121C03F1100242E9045542E902551032D2
:1002B0007245F8D10CF1010214F00C0F03EB02129D
:1002C00004F00F0C13D0ACF1040323F00303043348
:1002D000134442F8045B9342FBD10CF003042CB1AD
:1002E000CAB21C4403F8012B9C42FBD130BD6446CA
:1002F0001346002CF4D1F9E703461446BFE71A462B
:10030000A446E0E753B94AB9002908BF00281CBF3A
:100310004FF0FF314FF0FF3000F074B9ADF1080C31
:100320006DE904CE00F006F8DDF804E0DDE9022313
:1003300004B070472DE9F047089D04468E46002B17
:100340004DD18A42944669D9B2FA82F252B101FA89
:1003500002F3C2F1200120FA01F10CFA02FC41EA99
:10036000030E94404FEA1C48210CBEFBF8F61FFA1E
:100370008CF708FB16E341EA034306FB07F19942B9
:100380000AD91CEB030306F1FF3080F01F8199426C
:1003900040F21C81023E63445B1AA4B2B3FBF8F046
:1003A00008FB103344EA034400FB07F7A7420AD9CD
:1003B0001CEB040400F1FF3380F00A81A74240F2F5
:1003C00007816444023840EA0640E41B00261DB160
:1003D000D4400023C5E900433146BDE8F0878B4295
:1003E00009D9002D00F0EF800026C5E90001304654
:1003F0003146BDE8F087B3FA83F6002E4AD18B422E
:1004000002D3824200F2F980841A61EB03030120D7
:100410009E46002DE0D0C5E9004EDDE702B9FFDEC3
:10042000B2FA82F2002A40F09280A1EB0C014FEA6E
:100430001C471FFA8CFE0126200CB1FBF7F307FBCB
:10044000131140EA01410EFB03F0884208D91CEB6E
:10045000010103F1FF3802D2884200F2CB8043460B
:10046000091AA4B2B1FBF7F007FB101144EA0144EA
:100470000EFB00FEA64508D91CEB040400F1FF3179
:1004800002D2A64500F2BB800846A4EB0E0440EA67
:1004900003409CE7C6F12007B34022FA07FC4CEA70
:1004A000030C20FA07F401FA06F31C43F9404FEA63
:1004B0001C4900FA06F3B1FBF9F8200C1FFA8CFE78
:1004C00009FB181140EA014108FB0EF0884202FACC
:1004D00006F20BD91CEB010108F1FF3A80F088808D
:1004E000884240F28580A8F102086144091AA4B24A
:1004F000B1FBF9F009FB101144EA014100FB0EFECB
:100500008E4508D91CEB010100F1FF346CD28E45F9
:100510006AD90238614440EA0840A0FB0294A1EB8A
:100520000E01A142C846A64656D353D05DB1B3EBE7
:10053000080261EB0E0101FA07F722FA06F3F14017
:100540001F43C5E9007100263146BDE8F087C2F1BE
:100550002003D8400CFA02FC21FA03F39140014336
:100560004FEA1C471FFA8CFEB3FBF7F007FB10366F
:100570000B0C43EA064300FB0EF69E4204FA02F41B
:1005800008D91CEB030300F1FF382FD29E422DD96E
:10059000023863449B1B89B2B3FBF7F607FB1633A3
:1005A00041EA034106FB0EF38B4208D91CEB010123
:1005B00006F1FF3816D28B4214D9023E6144C91AA3
:1005C00046EA004638E72E46284605E70646E3E6B3
:1005D0001846F8E64B45A9D2B9EB020864EB0C0EBD
:1005E0000138A3E74646EAE7204694E74046D1E7CC
:1005F000D0467BE7023B614432E7304609E764447A
:10060000023842E7704700BF80B500AF00F07DFEC2
:1006100000F036F800F0C6F800F094F8082117480A
:1006200002F0BEF908214FF0904002F0B9F94FF402
:10063000FA7000F0DFFE08214FF0904002F0B0F9B0
:1006400010214FF0904002F0ABF94FF4FA7000F037
:10065000D1FE10214FF0904002F0A2F920214FF07E
:10066000904002F09DF94FF4FA7000F0C3FE202193
:100670004FF0904002F094F9D0E700BF000400482A
:1006800080B596B000AF07F114034422002118464C
:10069000FFF7E6FD3B4600221A605A609A60DA6076
:1006A0001A614FF4007002F0B3F90346002B01D039
:1006B00000F0D8F802F08EF9214BD3F89030204AA0
:1006C00023F01803C2F8903014237B610123FB61EF
:1006D0000123FB6200233B6360237B630223FB63F4
:1006E00001233B6401237B641023BB640723FB6469
:1006F00002233B6502237B6507F11403184600F0D3
:100700009DFE0346002B01D000F0ACF80F233B60A8
:1007100003237B600023BB600023FB6000233B615D
:100720003B460121184601F09DFA0346002B01D0FB
:1007300000F098F801F0B0FE00BF5837BD4680BD0C
:100740000010024080B500AF144B154A1A60134BDD
:100750004FF4E1325A60114B00229A600F4B002295
:10076000DA600E4B00221A610C4B0C225A610B4BC3
:1007700000229A61094B0022DA61084B00221A62BA
:10078000064B00225A62054800F02AF90346002B66
:1007900001D000F067F800BF80BD00BF2C00002032
:1007A0000044004080B588B000AF07F10C03002280
:1007B0001A605A609A60DA601A61284BDB6C274A2B
:1007C00043F00403D364254BDB6C03F00403BB60EC
:1007D000BB68224BDB6C214A43F00103D3641F4BFF
:1007E000DB6C03F001037B607B681C4BDB6C1B4AFA
:1007F00043F00203D364194BDB6C03F002033B604C
:100800003B68002238214FF0904002F0B1F80022FE
:100810000821134802F0ACF83823FB6001233B6148
:1008200000237B610023BB6107F10C0319464FF0E5
:10083000904001F033FF0823FB6001233B6100235C
:100840007B610023BB6107F10C031946044801F0EA
:1008500025FF00BF2037BD4680BD00BF001002400D
:100860000004004880B400AF72B600BFFEE780B459
:1008700000AFFEE780B400AFFEE780B400AFFEE754
:1008800080B400AFFEE780B400AFFEE780B400AFF5
:1008900000BFBD465DF8047B704780B400AF00BF69
:1008A000BD465DF8047B704780B400AF00BFBD4615
:1008B0005DF8047B704780B500AF00F07BFD00BFA2
:1008C00080BD000080B483B000AF0F4B1B6E0E4A9A
:1008D00043F0010313660C4B1B6E03F001037B60B6
:1008E0007B68094B9B6D084A43F080539365064B28
:1008F0009B6D03F080533B603B6800BF0C37BD46E7
:100900005DF8047B704700BF0010024080B59EB0C8
:1009100000AF786007F1640300221A605A609A60A1
:10092000DA601A6107F11003542200211846FFF71C
:1009300097FC7B681B68284A934248D102233B619D
:1009400000237B6307F11003184601F0AFFB034659
:10095000002B01D0FFF786FF204B9B6D1F4A43F40D
:10096000003393651D4B9B6D03F40033FB60FB6804
:100970001A4BDB6C194A43F00103D364174BDB6C51
:1009800003F00103BB60BB6804237B660223BB66E4
:100990000023FB6603233B6707237B6707F16403A0
:1009A00019464FF0904001F079FE4FF400437B660A
:1009B0000223BB660023FB6603233B6703237B679D
:1009C00007F1640319464FF0904001F067FE00BF45
:1009D0007837BD4680BD00BF004400400010024093
:1009E00080B582B000AF78607B68002B01D1012315
:1009F00040E07B68DB6F002B06D17B68002283F828
:100A000078207868FFF782FF7B682422DA677B68AA
:100A10001B681A687B681B6822F001021A607B68F9
:100A20005B6A002B02D0786800F054FA786800F016
:100A300025F80346012B01D101231BE07B681B68CD
:100A40005A687B681B6822F490425A607B681B6876
:100A50009A687B681B6822F02A029A607B681B6890
:100A60001A687B681B6842F001021A60786800F01F
:100A7000D3FA034618460837BD4680BD2DE9B04F6E
:100A80008AB000AFF860002387F82230FB689A68CC
:100A9000FB681B691A43FB685B691A43FB68DB69E7
:100AA00013437B62FB681B681A68B44B1340FA68F7
:100AB0001268796A0B431360FB681B685B6823F458
:100AC0004051FB68DA68FB681B680A435A60FB68A0
:100AD0009B697B62FB681B68A94A934204D0FB6850
:100AE0001B6A7A6A13437B62FB681B689B6823F46A
:100AF0003061FB681B687A6A0A439A60FB681B686E
:100B0000A04A934226D1A04BD3F8883003F00303C8
:100B1000032B1BD801A252F823F000BF2D0B0008B5
:100B20003D0B0008350B0008450B0008012387F832
:100B3000233080E0022387F823307CE0042387F809
:100B4000233078E0082387F8233074E0102387F8F7
:100B5000233070E0FB681B688C4A934238D18A4B83
:100B6000D3F8883003F00C030C2B2DD801A252F8D7
:100B700023F000BFA90B0008C90B0008C90B00082F
:100B8000C90B0008B90B0008C90B0008C90B000805
:100B9000C90B0008B10B0008C90B0008C90B0008FD
:100BA000C90B0008C10B0008002387F8233042E07E
:100BB000022387F823303EE0042387F823303AE00D
:100BC000082387F8233036E0102387F8233032E0FB
:100BD000FB681B686A4A93422AD16B4BD3F8883072
:100BE00003F44063B3F5406F1AD0B3F5406F1BD8E0
:100BF000B3F5006F0CD0B3F5006F15D8002B03D000
:100C0000B3F5806F08D00FE0002387F8233012E09F
:100C1000022387F823300EE0042387F823300AE00C
:100C2000082387F8233006E0102387F8233002E0FA
:100C3000102387F82330FB681B68514A93427AD10E
:100C400097F82330082B24D801A252F823F000BFD4
:100C5000750C0008930C00087D0C0008930C00082C
:100C6000830C0008930C0008930C0008930C0008F8
:100C70008B0C000801F08EF9F86110E0444BFB6129
:100C80000DE001F0EFF8F86109E04FF40043FB617B
:100C900005E00023FB61012387F8223000BFFB69D8
:100CA000002B00F00781FB685A6813465B00134471
:100CB000FA699A4205D3FB685B681B03FA699A429A
:100CC00003D9012387F82230F4E0FB6900221C4697
:100CD00015464FF000024FF000032B0243EA146365
:100CE0002202F9684968490800208846814612EBCB
:100CF000080A43EB090BFB685B6800223B607A60E3
:100D0000D7E9002350465946FFF7FCFA02460B4646
:100D10001346BB61BB69B3F5407F08D3BB69B3F52C
:100D2000801F04D2FB681B68BA69DA60C2E0012345
:100D300087F82230BEE0FB68DB69B3F5004F6AD16B
:100D400097F82330082B34D801A252F823F000BFC3
:100D5000750D0008950D00089D0D0008B30D0008E5
:100D6000A30D0008B30D0008B30D0008B30D000873
:100D7000AB0D000801F00EF9F86120E0F369FFEF18
:100D80000080004000380140001002400044004054
:100D90000024F40001F014F9F86110E04C4BFB6101
:100DA0000DE001F05FF8F86109E04FF40043FB61EA
:100DB00005E00023FB61012387F8223000BFFB69B7
:100DC000002B77D0FB695A00FB685B685B081A440C
:100DD000FB685B68B2FBF3F3BB61BB690F2B16D9F1
:100DE000BB69B3F5803F12D2BB699BB223F00F03FE
:100DF000FB82BB695B089BB203F007039AB2FB8AD4
:100E00001343FB82FB681B68FA8ADA6052E0012315
:100E100087F822304EE097F82330082B27D801A21C
:100E200052F823F0490E0008510E0008590E000830
:100E30006F0E00085F0E00086F0E00086F0E0008AE
:100E40006F0E0008670E000801F0A4F8F86114E0C6
:100E500001F0B6F8F86110E01D4BFB610DE001F008
:100E600001F8F86109E04FF40043FB6105E000235D
:100E7000FB61012387F8223000BFFB69002B19D0EA
:100E8000FB685B685A08FB691A44FB685B68B2FB45
:100E9000F3F3BB61BB690F2B09D9BB69B3F5803F85
:100EA00005D2BB699AB2FB681B68DA6002E00123D5
:100EB00087F82230FB6800229A66FB680022DA6617
:100EC00097F8223018462837BD46BDE8B08F00BFDE
:100ED0000024F40080B483B000AF78607B685B6A64
:100EE00003F00803002B0AD07B681B685B6823F4BF
:100EF00000417B685A6B7B681B680A435A607B68B9
:100F00005B6A03F00103002B0AD07B681B685B68F7
:100F100023F400317B689A6A7B681B680A435A6035
:100F20007B685B6A03F00203002B0AD07B681B68B6
:100F30005B6823F480317B68DA6A7B681B680A434C
:100F40005A607B685B6A03F00403002B0AD07B685D
:100F50001B685B6823F480217B681A6B7B681B68C5
:100F60000A435A607B685B6A03F01003002B0AD0C7
:100F70007B681B689B6823F480517B689A6B7B6855
:100F80001B680A439A607B685B6A03F02003002BAE
:100F90000AD07B681B689B6823F400517B68DA6B7E
:100FA0007B681B680A439A607B685B6A03F04003B6
:100FB000002B1AD07B681B685B6823F480117B6868
:100FC0001A6C7B681B680A435A607B681B6CB3F51C
:100FD000801F0AD17B681B685B6823F4C0017B68B3
:100FE0005A6C7B681B680A435A607B685B6A03F033
:100FF0008003002B0AD07B681B685B6823F4002108
:101000007B689A6C7B681B680A435A6000BF0C3788
:10101000BD465DF8047B704780B598B002AF78603C
:101020007B680022C3F8842000F0D8F978657B68DB
:101030001B681B6803F00803082B2ED16FF07E435A
:1010400000937B6D00224FF40011786800F08CF85B
:101050000346002B21D07B681B68BB63BB6B53E846
:10106000003F7B637B6B23F080033B657B681B68E1
:101070001A463B6D7B643A64396C7A6C41E8002314
:10108000FB63FB6B002BE6D17B682022DA677B6871
:10109000002283F87820032362E07B681B681B68CA
:1010A00003F00403042B49D16FF07E4300937B6D62
:1010B00000224FF48001786800F056F80346002BB8
:1010C0003CD07B681B687B627B6A53E8003F3B62D5
:1010D0003B6A23F49073FB647B681B681A46FB6CC5
:1010E0003B63FA62F96A3A6B41E80023BB62BB6A70
:1010F000002BE6D17B681B6808333B613B6953E8F2
:10110000003FFB60FB6823F00103BB647B681B6846
:101110000833BA6CFA61BB61B969FA6941E8002326
:101120007B617B69002BE5D17B682022C3F880209E
:101130007B68002283F87820032311E07B6820225B
:10114000DA677B682022C3F880207B6800221A6659
:101150007B6800225A667B68002283F8782000238F
:1011600018465837BD4680BD80B584B000AFF860E2
:10117000B9603B601346FB714FE0BB69B3F1FF3FC1
:101180004BD000F02BF902463B68D31ABA699A4259
:1011900002D3BB69002B01D103234EE0FB681B681F
:1011A0001B6803F00403002B37D0BB68802B34D0BE
:1011B000BB68402B31D0FB681B68DB6903F0080378
:1011C000082B10D1FB681B6808221A62F86800F02F
:1011D00038F8FB680822C3F88420FB68002283F8F3
:1011E0007820012329E0FB681B68DB6903F40063B6
:1011F000B3F5006F11D1FB681B684FF400621A62EF
:10120000F86800F01EF8FB682022C3F88420FB6811
:10121000002283F8782003230FE0FB681B68DA695B
:10122000BB681340BA689A420CBF01230023DBB2AB
:101230001A46FB799A42A0D0002318461037BD46C3
:1012400080BD80B495B000AF78607B681B687B631D
:101250007B6B53E8003F3B633B6B23F49073FB6471
:101260007B681B681A46FB6C3B64FA63F96B3A6C4B
:1012700041E80023BB63BB6B002BE6D17B681B6896
:1012800008333B623B6A53E8003FFB61FB6923F094
:101290000103BB647B681B680833BA6CFA62BB62EB
:1012A000B96AFA6A41E800237B627B6A002BE5D1C8
:1012B0007B681B6E012B18D17B681B68FB60FB6889
:1012C00053E8003FBB60BB6823F010037B647B687E
:1012D0001B681A467B6CBB617A617969BA6941E81F
:1012E00000233B613B69002BE6D17B682022C3F8D9
:1012F00080207B6800221A667B6800229A6600BF05
:101300005437BD465DF8047B704780B582B000AFAE
:101310000023FB71032001F083FC002000F00EF895
:101320000346002B02D00123FB7101E0FFF7CAFA4C
:10133000FB7918460837BD4680BD000080B584B0F3
:1013400000AF78600023FB73174B1B78002B23D072
:10135000164B1A68144B1B7819464FF47A73B3FB7B
:10136000F1F3B2FBF3F3184601F081FC0346002BC6
:101370000FD17B680F2B09D8002279684FF0FF301E
:1013800001F059FC0A4A7B68136007E00123FB73F4
:1013900004E00123FB7301E00123FB73FB7B184690
:1013A0001037BD4680BD00BF0400002008000020AB
:1013B0000000002080B400AF064B1B781A46064B95
:1013C0001B681344044A136000BFBD465DF8047BEC
:1013D000704700BF04000020B400002080B400AFBC
:1013E000034B1B681846BD465DF8047B704700BF81
:1013F000B400002080B584B000AF7860FFF7EEFF46
:10140000B8607B68FB60FB68B3F1FF3F05D00A4B17
:101410001B781A46FB681344FB6000BFFFF7DEFF32
:101420000246BB68D31AFA689A42F7D800BF00BFD9
:101430001037BD4680BD00BF0400002080B588B0D5
:1014400000AF78607B68002B02D1012300F002BC62
:10145000964B9B6803F00C03BB61944BDB6803F075
:1014600003037B617B681B6803F01003002B00F013
:10147000E480BB69002B07D0BB690C2B40F08B804C
:101480007B69012B40F08780884B1B6803F00203C7
:10149000002B05D07B689B69002B01D10123D9E388
:1014A0007B681A6A814B1B6803F00803002B04D089
:1014B0007E4B1B6803F0F00305E07C4BD3F89430BF
:1014C0001B0903F0F003934223D27B681B6A184682
:1014D00000F08CFD0346002B01D00123BAE3734BCF
:1014E0001B68724A43F008031360704B1B6823F0BB
:1014F000F0027B681B6A6D4913430B606B4B5B68A2
:1015000023F47F427B68DB691B02684913434B600D
:1015100025E0664B1B68654A43F008031360634B84
:101520001B6823F0F0027B681B6A604913430B6061
:101530005E4B5B6823F47F427B68DB691B025B497F
:1015400013434B60BB69002B09D17B681B6A1846AB
:1015500000F04CFD0346002B01D001237AE300F09C
:1015600081FC0246514B9B681B0903F00F03504955
:10157000CB5C03F01F0322FA03F34E4A13604E4B79
:101580001B681846FFF7DAFE0346FB73FB7B002B54
:1015900052D0FB7B5EE37B689B69002B32D0434BD0
:1015A0001B68424A43F001031360FFF717FF3861DD
:1015B00008E0FFF713FF02463B69D31A022B01D95B
:1015C000032347E3394B1B6803F00203002BF0D0E1
:1015D000364B1B68354A43F008031360334B1B68D6
:1015E00023F0F0027B681B6A304913430B602F4BDA
:1015F0005B6823F47F427B68DB691B022B49134342
:101600004B601AE0294B1B68284A23F00103136042
:10161000FFF7E4FE386108E0FFF7E0FE02463B69B1
:10162000D31A022B01D9032314E3204B1B6803F0C8
:101630000203002BF0D100E000BF7B681B6803F0C1
:101640000103002B73D0BB69082B05D0BB690C2BA1
:101650000ED17B69032B0BD1144B1B6803F40033B1
:10166000002B63D07B685B68002B5FD10123F1E224
:101670007B685B68B3F5803F06D10C4B1B680B4A57
:1016800043F48033136025E07B685B68B3F5A02FDB
:1016900014D1064B1B68054A43F480231360034BA7
:1016A0001B68024A43F48033136013E000100240C9
:1016B000182D00080800002000000020A04B1B6827
:1016C0009F4A23F4803313609D4B1B689C4A23F48C
:1016D000802313607B685B68002B13D0FFF77EFECE
:1016E000386108E0FFF77AFE02463B69D31A642BA3
:1016F00001D90323AEE2924B1B6803F40033002BA5
:10170000F0D014E0FFF76AFE386108E0FFF766FEEC
:1017100002463B69D31A642B01D903239AE2884B12
:101720001B6803F40033002BF0D100E000BF7B689E
:101730001B6803F00203002B60D0BB69042B05D0AB
:10174000BB690C2B19D17B69022B16D17C4B1B6812
:1017500003F48063002B05D07B68DB68002B01D18C
:10176000012377E2764B5B6823F0F8527B681B69B4
:101770001B06734913434B6040E07B68DB68002B1A
:1017800023D06F4B1B686E4A43F480731360FFF7DE
:1017900025FE386108E0FFF721FE02463B69D31AB7
:1017A000022B01D9032355E2654B1B6803F48063C8
:1017B000002BF0D0624B5B6823F0F8527B681B690A
:1017C0001B065F4913434B6018E05D4B1B685C4A86
:1017D00023F480731360FFF701FE386108E0FFF720
:1017E000FDFD02463B69D31A022B01D9032331E2E6
:1017F000534B1B6803F48063002BF0D17B681B689C
:1018000003F00803002B3CD07B685B69002B1CD0E5
:101810004B4BD3F894304A4A43F00103C2F894305A
:10182000FFF7DCFD386108E0FFF7D8FD02463B69B1
:10183000D31A022B01D903230CE2414BD3F8943085
:1018400003F00203002BEFD01BE03D4BD3F89430A4
:101850003B4A23F00103C2F89430FFF7BFFD386123
:1018600008E0FFF7BBFD02463B69D31A022B01D902
:101870000323EFE1324BD3F8943003F00203002B43
:10188000EFD17B681B6803F00403002B00F0A680F7
:101890000023FB772A4B9B6D03F08053002B0DD167
:1018A000274B9B6D264A43F080539365244B9B6DD9
:1018B00003F08053BB60BB680123FB77214B1B689F
:1018C00003F48073002B18D11E4B1B681D4A43F490
:1018D00080731360FFF782FD386108E0FFF77EFD3B
:1018E00002463B69D31A022B01D90323B2E1154BFF
:1018F0001B6803F48073002BF0D07B689B68012B7E
:1019000008D10F4BD3F890300D4A43F00103C2F8D1
:10191000903029E07B689B68052B15D1084BD3F8E4
:101920009030074A43F00403C2F89030044BD3F8D8
:101930009030034A43F00103C2F8903014E000BF36
:1019400000100240007000409A4BD3F89030994A42
:1019500023F00103C2F89030964BD3F89030954AAB
:1019600023F00403C2F890307B689B68002B16D0EC
:10197000FFF734FD38610AE0FFF730FD02463B69AE
:10198000D31A41F28832934201D9032362E1894B91
:10199000D3F8903003F00203002BEDD015E0FFF7F1
:1019A0001DFD38610AE0FFF719FD02463B69D31AB5
:1019B00041F28832934201D903234BE17D4BD3F8A6
:1019C000903003F00203002BEDD1FB7F012B05D1FA
:1019D000784B9B6D774A23F0805393657B681B6837
:1019E00003F02003002B3CD07B685B6A002B1CD0EB
:1019F000704BD3F898306F4A43F00103C2F8983027
:101A0000FFF7ECFC386108E0FFF7E8FC02463B69B1
:101A1000D31A022B01D903231CE1664BD3F898306B
:101A200003F00203002BEFD01BE0624BD3F8983099
:101A3000604A23F00103C2F89830FFF7CFFC386109
:101A400008E0FFF7CBFC02463B69D31A022B01D911
:101A50000323FFE0574BD3F8983003F00203002B29
:101A6000EFD17B689B6A002B00F0F3807B689B6A58
:101A7000022B40F0C9804F4BDB687B617B6903F030
:101A800003027B68DB6A9A422CD17B6903F0700207
:101A90007B681B6B013B1B019A4223D17B6903F4DA
:101AA000FE427B685B6B1B029A421BD17B6903F091
:101AB00078427B689B6BDB069A4213D17B6903F407
:101AC000C0027B68DB6B5B08013B5B059A4209D176
:101AD0007B6903F0C0627B681B6C5B08013B5B06A3
:101AE0009A426BD0BB690C2B62D0324B1B6803F05F
:101AF0008063002B01D00123ACE02E4B1B682D4AE4
:101B000023F080731360FFF769FC386108E0FFF78A
:101B100065FC02463B69D31A022B01D9032399E0E5
:101B2000244B1B6803F00073002BF0D1214BDA68C3
:101B3000214B13407A68D16A7A68126B013A12011C
:101B400011437A68526B120211437A68D26B5208C1
:101B5000013A520511437A68126C5208013A520652
:101B600011437A68926BD2060A4312491343CB6041
:101B7000104B1B680F4A43F0807313600D4BDB68FA
:101B80000C4A43F08073D360FFF728FC386108E00B
:101B9000FFF724FC02463B69D31A022B01D9032329
:101BA00058E0044B1B6803F00073002BF0D050E0AA
:101BB00001234FE0001002408C809D01274B1B68E1
:101BC00003F00073002B44D1244B1B68234A43F0DD
:101BD00080731360214BDB68204A43F08073D3602D
:101BE000FFF7FCFB386108E0FFF7F8FB02463B69B2
:101BF000D31A022B01D903232CE0184B1B6803F0E6
:101C00000073002BF0D024E0BB690C2B1FD0134BCA
:101C10001B68124A23F080731360FFF7DFFB386103
:101C200008E0FFF7DBFB02463B69D31A022B01D920
:101C300003230FE0094B1B6803F00073002BF0D166
:101C4000064BDA680549064B1340CB6001E00123DF
:101C500000E0002318462037BD4680BD001002403A
:101C6000FCFFEEFE80B584B000AF786039607B6821
:101C7000002B01D10123E7E0754B1B6803F007033C
:101C80003A689A4210D9724B1B6823F007027049D8
:101C90003B6813430B606E4B1B6803F007033A6805
:101CA0009A4201D00123CFE07B681B6803F0020356
:101CB000002B10D07B689A68664B9B6803F0F0039A
:101CC0009A4208D9634B9B6823F0F0027B689B68BB
:101CD000604913438B607B681B6803F00103002B92
:101CE0004CD07B685B68032B07D15A4B1B6803F011
:101CF0000073002B21D10123A6E07B685B68022BD7
:101D000007D1544B1B6803F40033002B15D101237A
:101D10009AE07B685B68002B07D14E4B1B6803F091
:101D20000203002B09D101238EE04A4B1B6803F408
:101D30008063002B01D1012386E0464B9B6823F092
:101D400003027B685B68434913438B60FFF746FBE4
:101D5000F8600AE0FFF742FB0246FB68D31A41F243
:101D60008832934201D903236EE03A4B9B6803F01B
:101D70000C027B685B689B009A42EBD17B681B6816
:101D800003F00203002B10D07B689A68314B9B68EC
:101D900003F0F0039A4208D22E4B9B6823F0F00226
:101DA0007B689B682B4913438B60294B1B6803F0AE
:101DB00007033A689A4210D2254B1B6823F00702AA
:101DC00023493B6813430B60214B1B6803F0070357
:101DD0003A689A4201D0012336E07B681B6803F021
:101DE0000403002B08D01B4B9B6823F4E0627B6844
:101DF000DB68184913438B607B681B6803F008039A
:101E0000002B09D0134B9B6823F460527B681B693D
:101E1000DB00104913438B6000F024F802460D4BA1
:101E20009B681B0903F00F030B49CB5C03F01F03F6
:101E300022FA03F3094A1360094B1B681846FFF79F
:101E40007DFA0346FB72FB7A18461037BD4680BD0B
:101E50000020024000100240182D00080800002059
:101E60000000002080B489B000AF0023FB61002394
:101E7000BB613E4B9B6803F00C033B613B4BDB6853
:101E800003F00303FB603B69002B05D03B690C2B7F
:101E900021D1FB68012B1ED1344B1B6803F00803D2
:101EA000002B07D1314BD3F894301B0A03F00F03FA
:101EB000FB6105E02D4B1B681B0903F00F03FB6161
:101EC0002B4AFB6952F82330FB613B69002B0DD193
:101ED000FB69BB610AE03B69042B02D1254BBB6166
:101EE00004E03B69082B01D1234BBB613B690C2B00
:101EF00034D11E4BDB6803F00303BB60BB68022BCD
:101F000003D0BB68032B03D005E01A4B7B6105E0CF
:101F1000194B7B6102E0FB697B6100BF134BDB68FF
:101F20001B0903F0070301337B60104BDB681B0ABE
:101F300003F07F037A6903FB02F27B68B2FBF3F3E1
:101F40007B610A4BDB685B0E03F0030301335B002C
:101F50003B607A693B68B2FBF3F3BB61BB6918462F
:101F60002437BD465DF8047B704700BF0010024077
:101F7000302D00080024F40000127A0080B400AF75
:101F8000034B1B681846BD465DF8047B704700BFD5
:101F90000800002080B500AFFFF7F0FF0246064BB7
:101FA0009B681B0A03F007030449CB5C03F01F0383
:101FB00022FA03F3184680BD00100240282D0008C5
:101FC00080B500AFFFF7DAFF0246064B9B68DB0ADD
:101FD00003F007030449CB5C03F01F0322FA03F369
:101FE000184680BD00100240282D000880B586B03C
:101FF00000AF786000233B612A4B9B6D03F0805358
:10200000002B03D000F0F6FC786114E0254B9B6DAB
:10201000244A43F080539365224B9B6D03F0805319
:10202000FB60FB6800F0E6FC78611E4B9B6D1D4A6F
:1020300023F0805393657B69B3F5007F0BD17B68F8
:10204000802B19D97B68A02B02D902233B6113E0B6
:1020500001233B6110E07B68802B02D903233B61A5
:102060000AE07B68802B02D102233B6104E07B689D
:10207000702B01D101233B610B4B1B6823F007023E
:1020800009493B6913430B60074B1B6803F00703C7
:102090003A699A4201D0012300E00023184618371C
:1020A000BD4680BD001002400020024080B586B0D1
:1020B00000AF78600023FB740023BB747B681B684F
:1020C00003F40063002B31D07B68DB6BB3F5400F6A
:1020D0001AD0B3F5400F14D8002B09D0B3F5000F78
:1020E0000FD15D4BDB685C4A43F48033D3600CE076
:1020F0007B6804330021184600F0DEF90346FB74C8
:1021000003E00123FB7400E000BFFB7C002B0BD13C
:10211000514BD3F8883023F440027B68DB6B4E4987
:102120001343C1F8883001E0FB7CBB747B681B68FB
:1021300003F40033002B00F09E8000237B74464B99
:102140009B6D03F08053002B01D1012300E000239D
:10215000002B0DD0404B9B6D3F4A43F0805393655D
:102160003D4B9B6D03F08053BB60BB6801237B74C8
:102170003A4B1B68394A43F480731360FFF72EF91A
:10218000F86009E0FFF72AF90246FB68D31A022B30
:1021900002D90323FB7405E0304B1B6803F4807302
:1021A000002BEFD0FB7C002B5AD12B4BD3F8903077
:1021B00003F440737B617B69002B1ED07B681B6D31
:1021C0007A699A4219D0244BD3F8903023F44073A3
:1021D0007B61214BD3F890301F4A43F48033C2F81F
:1021E00090301D4BD3F890301B4A23F48033C2F853
:1021F0009030194A7B69C2F890307B6903F0010383
:10220000002B16D0FFF7EAF8F8600BE0FFF7E6F8CE
:102210000246FB68D31A41F28832934202D9032363
:10222000FB7406E00C4BD3F8903003F00203002B54
:10223000ECD0FB7C002B0BD1074BD3F8903023F470
:1022400040727B681B6D04491343C1F8903009E06C
:10225000FB7CBB7406E000BF001002400070004031
:10226000FB7CBB747B7C012B05D18A4B9B6D894A1F
:1022700023F0805393657B681B6803F00103002BF8
:102280000AD0844BD3F8883023F003027B681B6AA2
:1022900080491343C1F888307B681B6803F0020350
:1022A000002B0AD07B4BD3F8883023F00C027B68DC
:1022B0005B6A78491343C1F888307B681B6803F078
:1022C0002003002B0AD0734BD3F8883023F44062EC
:1022D0007B689B6A6F491343C1F888307B681B6831
:1022E00003F40073002B0AD06A4BD3F8883023F430
:1022F00040227B685B6B67491343C1F888307B6879
:102300001B6803F48063002B0AD0624BD3F888303B
:1023100023F440127B689B6B5E491343C1F88830FD
:102320007B681B6803F04003002B0AD0594BD3F89D
:10233000883023F440527B68DB6A56491343C1F866
:1023400088307B681B6803F48073002B0AD0514BE4
:10235000D3F8883023F440327B681B6B4D4913431C
:10236000C1F888307B681B6803F40053002B28D029
:10237000484BD3F8883023F040627B681B6C45499A
:102380001343C1F888307B681B6CB3F1006F06D132
:10239000404BDB683F4A43F48013D36011E07B6815
:1023A0001B6CB3F1806F0CD17B680433012118469C
:1023B00000F082F80346FB74FB7C002B01D0FB7C11
:1023C000BB747B681B6803F48023002B28D0314B3F
:1023D000D3F8883023F040627B685B6C2D4913434F
:1023E000C1F888307B685B6CB3F1006F06D1294B74
:1023F000DB68284A43F48013D36011E07B685B6C90
:10240000B3F1806F0CD17B6804330121184600F0D2
:1024100053F80346FB74FB7C002B01D0FB7CBB74A0
:102420007B681B6803F48043002B1CD0194BD3F846
:10243000883023F040527B689B6C16491343C1F8E7
:1024400088307B689B6CB3F1805F0CD17B68043370
:102450000221184600F030F80346FB74FB7C002B89
:1024600001D0FB7CBB747B681B6803F40043002B2A
:102470000AD0084BD3F8883023F080427B68DB6CAD
:1024800004491343C1F88830BB7C18461837BD4651
:1024900080BD00BF0010024080B400AF054B1B6838
:1024A000044A43F00403136000BFBD465DF8047B9B
:1024B000704700BF0010024080B584B000AF786064
:1024C00039600023FB73744BDB6803F00303002BBC
:1024D00018D0714BDB6803F003027B681B689A42DB
:1024E0000DD17B681B68002B09D06B4BDB681B0987
:1024F00003F007035A1C7B685B689A4247D00123AC
:10250000FB7344E07B681B68032B18D0032B25D892
:10251000012B02D0022B09D020E05F4B1B6803F097
:102520000203002B1DD10123FB731AE05A4B1B68D9
:1025300003F48063002B16D10123FB7313E0564B89
:102540001B6803F40033002B0FD1534B1B6803F4BB
:102550008023002B09D10123FB7306E00123FB73C9
:1025600004E000BF02E000BF00E000BFFB7B002BE7
:102570000DD1494BDB6823F073027B6819687B68D7
:102580005B68013B1B010B4343491343CB60FB7B5F
:10259000002B7CD1404B1B683F4A23F080631360C3
:1025A000FEF71CFFB86009E0FEF718FF0246BB68A3
:1025B000D31A022B02D90323FB7305E0364B1B68A9
:1025C00003F00063002BEFD1FB7B002B5FD13B6856
:1025D000002B10D1304B1B6923F0784323F4FE43CA
:1025E0007A68926811027A68D268D2060A432A4948
:1025F00013430B6127E03B68012B12D1264B1B696B
:1026000023F4C00323F4FE437A68926811027A68C7
:1026100012695208013A52050A431F4913430B61DC
:1026200011E01D4B1B6923F0C06323F4FE437A685D
:10263000926811027A6852695208013A52060A43B6
:10264000154913430B61144B1B68134A43F0806315
:102650001360FEF7C3FEB86009E0FEF7BFFE024656
:10266000BB68D31A022B02D90323FB7305E00A4B84
:102670001B6803F00063002BEFD0FB7B002B06D11F
:10268000054B1A697B689B69034913430B61FB7B0C
:1026900018461037BD4680BD0010024080B487B098
:1026A00000AF7860396000237B6148E13B681A68BD
:1026B00001217B6901FA03F31340FB60FB68002BE7
:1026C00000F03A813B685B6803F00303012B05D0FF
:1026D0003B685B6803F00303022B30D17B689B6887
:1026E0003B617B695B00032202FA03F3DB433A6937
:1026F00013403B613B68DA687B695B0002FA03F3D5
:102700003A6913433B617B683A699A607B685B680E
:102710003B6101227B6902FA03F3DB433A69134010
:102720003B613B685B681B0903F001027B6902FAAD
:1027300003F33A6913433B617B683A695A603B682B
:102740005B6803F00303032B17D07B68DB683B61F6
:102750007B695B00032202FA03F3DB433A6913400F
:102760003B613B689A687B695B0002FA03F33A6954
:1027700013433B617B683A69DA603B685B6803F04E
:102780000303022B23D17B69DA087B68083253F8F4
:1027900022303B617B6903F007039B000F2202FAA2
:1027A00003F3DB433A6913403B613B681A697B6979
:1027B00003F007039B0002FA03F33A6913433B61FA
:1027C0007B69DA087B680832396943F822107B6834
:1027D0001B683B617B695B00032202FA03F3DB4366
:1027E0003A6913403B613B685B6803F003027B6915
:1027F0005B0002FA03F33A6913433B617B683A6971
:102800001A603B685B6803F44033002B00F094804F
:10281000524B1B6E514A43F0010313664F4B1B6E24
:1028200003F00103BB60BB684D4A7B699B08023320
:1028300052F823303B617B6903F003039B000F22B6
:1028400002FA03F3DB433A6913403B617B68B3F15F
:10285000904F0DD07B68434A934207D07B68424A31
:10286000934201D1022304E0072302E0012300E0A8
:1028700000237A6902F00302920093403A691343FD
:102880003B6137497B699B0802333A6941F8232051
:10289000364B9B683B61FB68DB433A6913403B6105
:1028A0003B685B6803F48013002B03D03A69FB6834
:1028B00013433B612D4A3B6993602C4BDB683B61C2
:1028C000FB68DB433A6913403B613B685B6803F498
:1028D0000013002B03D03A69FB6813433B61234A82
:1028E0003B69D360214B5B683B61FB68DB433A6922
:1028F00013403B613B685B6803F40033002B03D05B
:102900003A69FB6813433B61184A3B695360174BB4
:102910001B683B61FB68DB433A6913403B613B68E2
:102920005B6803F48033002B03D03A69FB681343E0
:102930003B610E4A3B6913607B6901337B613B68F5
:102940001A687B6922FA03F3002B7FF4AFAE00BF55
:1029500000BF1C37BD465DF8047B70470010024085
:102960000000014000040048000800480004014045
:1029700080B483B000AF78600B467B8013467B70D9
:102980007B78002B03D07A887B689A6102E07A8892
:102990007B689A6200BF0C37BD465DF8047B7047C8
:1029A00080B485B000AF78600B467B807B685B6944
:1029B000FB607A88FB6813401A04FB68D9437B8864
:1029C0000B401A437B689A6100BF1437BD465DF81F
:1029D000047B704780B400AF054B1B68044A43F486
:1029E0008073136000BFBD465DF8047B704700BF75
:1029F0000070004080B400AF044B1B6803F4C06358
:102A00001846BD465DF8047B704700BF007000406B
:102A100080B485B000AF78607B68B3F5007F30D1BB
:102A2000234B1B6803F4C063B3F5007F38D0204B01
:102A30001B6823F4C0631E4A43F4007313601D4BEC
:102A40001B68322202FB03F31B4AA2FB03239B0CED
:102A50000133FB6002E0FB68013BFB60144B5B69E8
:102A600003F48063B3F5806F02D1FB68002BF2D1D1
:102A70000F4B5B6903F48063B3F5806F10D10323C0
:102A80000FE00B4B1B6803F4C063B3F5806F07D0F6
:102A9000074B1B6823F4C063054A43F4806313604B
:102AA000002318461437BD465DF8047B704700BF0D
:102AB000007000400800002083DE1B4380B485B016
:102AC00000AF78607B6803F00703FB600C4BDB68AA
:102AD000BB60BA684FF6FF031340BB60FB681A0285
:102AE000BB68134343F0BF6343F40033BB60044A45
:102AF000BB68D36000BF1437BD465DF8047B7047E8
:102B000000ED00E080B400AF044BDB681B0A03F06B
:102B100007031846BD465DF8047B704700ED00E0F2
:102B200080B483B000AF03463960FB7197F907307A
:102B3000002B0ADB3B68DAB20C4997F90730120127
:102B4000D2B20B4483F800230AE03B68DAB20849AA
:102B5000FB7903F00F03043B1201D2B20B441A7647
:102B600000BF0C37BD465DF8047B704700E100E014
:102B700000ED00E080B489B000AFF860B9607A6021
:102B8000FB6803F00703FB61FB69C3F10703042B38
:102B900028BF0423BB61FB690433062B02D9FB6900
:102BA000033B00E000237B614FF0FF32BB6902FA78
:102BB00003F3DA43BB681A407B699A404FF0FF3158
:102BC0007B6901FA03F3D9437B680B401343184632
:102BD0002437BD465DF8047B7047000080B582B0A5
:102BE00000AF78607B68013BB3F1807F01D30123A4
:102BF0000FE00A4A7B68013B53600F214FF0FF3022
:102C0000FFF78EFF054B00229A60044B07221A60E3
:102C1000002318460837BD4680BD00BF10E000E025
:102C200080B582B000AF78607868FFF747FF00BFDB
:102C30000837BD4680BD80B586B000AF0346B96099
:102C40007A60FB7300237B61FFF75CFF78617A6831
:102C5000B9687869FFF78EFF024697F90F30114681
:102C60001846FFF75DFF00BF1837BD4680BD80B531
:102C700082B000AF78607868FFF7B0FF034618466F
:102C80000837BD4680BD000080B400AF064BD3F8C6
:102C90008830054A43F47003C2F8883000BFBD464F
:102CA0005DF8047B704700BF00ED00E0DFF834D032
:102CB000FFF7EAFF0C480D490D4A002302E0D45803
:102CC000C4500433C4188C42F9D30A4A0A4C002376
:102CD00001E013600432A242FBD3FDF79DFAFDF739
:102CE00093FCFEE7000001200000002010000020FF
:102CF000782D000810000020B8000020FEE700003A
:102D0000F8B500BFF8BC08BC9E467047F8B500BFD8
:082D1000F8BC08BC9E467047A8
:102D18000000000000000000010203040607080983
:102D28000000000001020304A0860100400D03001A
:102D3800801A060000350C0040420F0080841E00F7
:102D480000093D0000127A000024F40000366E01EC
:082D58000048E801006CDC02F8
:082D6000D4D5FF7F0100000043
:082D6800F90100080000000061
:082D7000D10100080000000081
:102D7800100000000100000000093D0000000000F4
:0400000508002CAD16
:00000001FF
